11:56:20.798689 IP 192.168.1.5.54022 > 217.69.139.61.443: Flags [FP.], seq 751388092:751388123, ack 2404523931, win 864, options [nop,nop,TS val 2002235712 ecr 2052861423], length 31
	0x0000:  4500 0053 3c60 4000 4006 d814 c0a8 0105  E..S<`@.@.......
	0x0010:  d945 8b3d d306 01bb 2cc9 45bc 8f52 1f9b  .E.=....,.E..R..
	0x0020:  8019 0360 2676 0000 0101 080a 7757 b140  ...`&v......wW.@
	0x0030:  7a5c 2def 1503 0300 1a00 0000 0000 0000  z\-.............
	0x0040:  0774 18b0 f01e a33e d507 5af8 b410 f964  .t.....>..Z....d
	0x0050:  ef3c 60                                  .<`
11:56:20.809122 IP 217.69.139.61.443 > 192.168.1.5.54022: Flags [.], ack 751388124, win 135, options [nop,nop,TS val 2052914744 ecr 2002235712], length 0
	0x0000:  4520 0034 8368 4000 3506 9c0b d945 8b3d  E..4.h@.5....E.=
	0x0010:  c0a8 0105 01bb d306 8f52 1f9b 2cc9 45dc  .........R..,.E.
	0x0020:  8010 0087 b883 0000 0101 080a 7a5c fe38  ............z\.8
	0x0030:  7757 b140                                wW.@
11:56:20.809183 IP 217.69.139.61.443 > 192.168.1.5.54022: Flags [F.], seq 2404523931, ack 751388124, win 135, options [nop,nop,TS val 2052914744 ecr 2002235712], length 0
	0x0000:  4520 0034 8369 4000 3506 9c0a d945 8b3d  E..4.i@.5....E.=
	0x0010:  c0a8 0105 01bb d306 8f52 1f9b 2cc9 45dc  .........R..,.E.
	0x0020:  8011 0087 b882 0000 0101 080a 7a5c fe38  ............z\.8
	0x0030:  7757 b140                                wW.@
11:56:20.809213 IP 192.168.1.5.54022 > 217.69.139.61.443: Flags [.], ack 2404523932, win 864, options [nop,nop,TS val 2002235723 ecr 2052914744], length 0
	0x0000:  4500 0034 0000 4000 4006 1494 c0a8 0105  E..4..@.@.......
	0x0010:  d945 8b3d d306 01bb 2cc9 45dc 8f52 1f9c  .E.=....,.E..R..
	0x0020:  8010 0360 b59e 0000 0101 080a 7757 b14b  ...`........wW.K
	0x0030:  7a5c fe38                                z\.8
